{
  "contractName": "PermitToken",
  "abi": [
    {
      "anonymous": false,
      "inputs": [
        {
          "indexed": false,
          "internalType": "address",
          "name": "_holder",
          "type": "address"
        },
        {
          "indexed": false,
          "internalType": "address",
          "name": "_destination",
          "type": "address"
        },
        {
          "indexed": false,
          "internalType": "uint256",
          "name": "_amount",
          "type": "uint256"
        }
      ],
      "name": "Transfer",
      "type": "event"
    },
    {
      "inputs": [],
      "name": "DOMAIN_SEPARATOR",
      "outputs": [
        {
          "internalType": "bytes32",
          "name": "",
          "type": "bytes32"
        }
      ],
      "stateMutability": "view",
      "type": "function",
      "constant": true
    },
    {
      "inputs": [
        {
          "internalType": "address",
          "name": "",
          "type": "address"
        },
        {
          "internalType": "address",
          "name": "",
          "type": "address"
        }
      ],
      "name": "allowance",
      "outputs": [
        {
          "internalType": "uint256",
          "name": "",
          "type": "uint256"
        }
      ],
      "stateMutability": "view",
      "type": "function",
      "constant": true
    },
    {
      "inputs": [
        {
          "internalType": "address",
          "name": "",
          "type": "address"
        }
      ],
      "name": "balanceOf",
      "outputs": [
        {
          "internalType": "uint256",
          "name": "",
          "type": "uint256"
        }
      ],
      "stateMutability": "view",
      "type": "function",
      "constant": true
    },
    {
      "inputs": [],
      "name": "name",
      "outputs": [
        {
          "internalType": "string",
          "name": "",
          "type": "string"
        }
      ],
      "stateMutability": "view",
      "type": "function",
      "constant": true
    },
    {
      "inputs": [
        {
          "internalType": "address",
          "name": "",
          "type": "address"
        }
      ],
      "name": "nonceArr",
      "outputs": [
        {
          "internalType": "uint256",
          "name": "",
          "type": "uint256"
        }
      ],
      "stateMutability": "view",
      "type": "function",
      "constant": true
    },
    {
      "inputs": [],
      "name": "symbol",
      "outputs": [
        {
          "internalType": "string",
          "name": "",
          "type": "string"
        }
      ],
      "stateMutability": "view",
      "type": "function",
      "constant": true
    },
    {
      "inputs": [],
      "name": "totalSupply",
      "outputs": [
        {
          "internalType": "uint256",
          "name": "",
          "type": "uint256"
        }
      ],
      "stateMutability": "view",
      "type": "function",
      "constant": true
    },
    {
      "inputs": [],
      "name": "version",
      "outputs": [
        {
          "internalType": "string",
          "name": "",
          "type": "string"
        }
      ],
      "stateMutability": "view",
      "type": "function",
      "constant": true
    },
    {
      "inputs": [
        {
          "internalType": "address",
          "name": "_account",
          "type": "address"
        }
      ],
      "name": "balanceOfAccount",
      "outputs": [
        {
          "internalType": "uint256",
          "name": "",
          "type": "uint256"
        }
      ],
      "stateMutability": "view",
      "type": "function",
      "constant": true
    },
    {
      "inputs": [
        {
          "internalType": "address",
          "name": "_holder",
          "type": "address"
        },
        {
          "internalType": "address",
          "name": "_spender",
          "type": "address"
        },
        {
          "internalType": "uint256",
          "name": "_amount",
          "type": "uint256"
        }
      ],
      "name": "transferFrom",
      "outputs": [
        {
          "internalType": "bool",
          "name": "",
          "type": "bool"
        }
      ],
      "stateMutability": "nonpayable",
      "type": "function"
    },
    {
      "inputs": [
        {
          "internalType": "address",
          "name": "_reciever",
          "type": "address"
        },
        {
          "internalType": "uint256",
          "name": "_amount",
          "type": "uint256"
        }
      ],
      "name": "mint",
      "outputs": [],
      "stateMutability": "payable",
      "type": "function",
      "payable": true
    },
    {
      "inputs": [
        {
          "internalType": "address",
          "name": "_burner",
          "type": "address"
        },
        {
          "internalType": "uint256",
          "name": "_amount",
          "type": "uint256"
        }
      ],
      "name": "burn",
      "outputs": [],
      "stateMutability": "payable",
      "type": "function",
      "payable": true
    },
    {
      "inputs": [
        {
          "internalType": "address",
          "name": "_holder",
          "type": "address"
        },
        {
          "internalType": "address",
          "name": "_spender",
          "type": "address"
        },
        {
          "internalType": "uint256",
          "name": "nonce",
          "type": "uint256"
        },
        {
          "internalType": "uint256",
          "name": "deadline",
          "type": "uint256"
        },
        {
          "internalType": "bool",
          "name": "allowed",
          "type": "bool"
        },
        {
          "internalType": "uint8",
          "name": "v",
          "type": "uint8"
        },
        {
          "internalType": "bytes32",
          "name": "r",
          "type": "bytes32"
        },
        {
          "internalType": "bytes32",
          "name": "s",
          "type": "bytes32"
        }
      ],
      "name": "permit",
      "outputs": [],
      "stateMutability": "nonpayable",
      "type": "function"
    }
  ],
  "bytecode": "0x608060405260405180606001604052806023815260200162001d4760239139600090816200002e9190620003d2565b506040518060400160405280600381526020017f474154000000000000000000000000000000000000000000000000000000000081525060019081620000759190620003d2565b506040518060400160405280600181526020017f310000000000000000000000000000000000000000000000000000000000000081525060029081620000bc9190620003d2565b507f8b73c3c69bb8fe3d512ecc4cf759cc79239f7b179b0ffacaa9a75d522b39400f6000604051620000ef919062000568565b6040518091039020600260405162000108919062000568565b604051809103902062013881306040516020016200012b95949392919062000633565b604051602081830303815290604052805190602001206007553480156200015157600080fd5b5062000690565b600081519050919050565b7f4e487b7100000000000000000000000000000000000000000000000000000000600052604160045260246000fd5b7f4e487b7100000000000000000000000000000000000000000000000000000000600052602260045260246000fd5b60006002820490506001821680620001da57607f821691505b602082108103620001f057620001ef62000192565b5b50919050565b60008190508160005260206000209050919050565b60006020601f8301049050919050565b600082821b905092915050565b6000600883026200025a7fffffffffffffffffffffffffffffffffffffffffffffffffffffffffffffffff826200021b565b6200026686836200021b565b95508019841693508086168417925050509392505050565b6000819050919050565b6000819050919050565b6000620002b3620002ad620002a7846200027e565b62000288565b6200027e565b9050919050565b6000819050919050565b620002cf8362000292565b620002e7620002de82620002ba565b84845462000228565b825550505050565b600090565b620002fe620002ef565b6200030b818484620002c4565b505050565b5b81811015620003335762000327600082620002f4565b60018101905062000311565b5050565b601f82111562000382576200034c81620001f6565b62000357846200020b565b8101602085101562000367578190505b6200037f62000376856200020b565b83018262000310565b50505b505050565b600082821c905092915050565b6000620003a76000198460080262000387565b1980831691505092915050565b6000620003c2838362000394565b9150826002028217905092915050565b620003dd8262000158565b67ffffffffffffffff811115620003f957620003f862000163565b5b620004058254620001c1565b6200041282828562000337565b600060209050601f8311600181146200044a576000841562000435578287015190505b620004418582620003b4565b865550620004b1565b601f1984166200045a86620001f6565b60005b8281101562000484578489015182556001820191506020850194506020810190506200045d565b86831015620004a45784890151620004a0601f89168262000394565b8355505b6001600288020188555050505b505050505050565b600081905092915050565b60008190508160005260206000209050919050565b60008154620004e881620001c1565b620004f48186620004b9565b9450600182166000811462000512576001811462000528576200055f565b60ff19831686528115158202860193506200055f565b6200053385620004c4565b60005b83811015620005575781548189015260018201915060208101905062000536565b838801955050505b50505092915050565b6000620005768284620004d9565b915081905092915050565b6000819050919050565b620005968162000581565b82525050565b6000819050919050565b600062ffffff82169050919050565b6000620005d6620005d0620005ca846200059c565b62000288565b620005a6565b9050919050565b620005e881620005b5565b82525050565b600073ffffffffffffffffffffffffffffffffffffffff82169050919050565b60006200061b82620005ee565b9050919050565b6200062d816200060e565b82525050565b600060a0820190506200064a60008301886200058b565b6200065960208301876200058b565b6200066860408301866200058b565b620006776060830185620005dd565b62000686608083018462000622565b9695505050505050565b6116a780620006a06000396000f3fe6080604052600436106100c25760003560e01c8063552d07441161007f57806395d89b411161005957806395d89b411461026f5780639dc29fac1461029a578063c237d392146102b6578063dd62ed3e146102f3576100c2565b8063552d0744146101cc57806370a08231146102095780638fcbaf0c14610246576100c2565b806306fdde03146100c757806318160ddd146100f257806323b872dd1461011d5780633644e5151461015a57806340c10f191461018557806354fd4d50146101a1575b600080fd5b3480156100d357600080fd5b506100dc610330565b6040516100e99190610f3e565b60405180910390f35b3480156100fe57600080fd5b506101076103be565b6040516101149190610f79565b60405180910390f35b34801561012957600080fd5b50610144600480360381019061013f9190611023565b6103c4565b6040516101519190611091565b60405180910390f35b34801561016657600080fd5b5061016f610805565b60405161017c91906110c5565b60405180910390f35b61019f600480360381019061019a91906110e0565b61080b565b005b3480156101ad57600080fd5b506101b66108e9565b6040516101c39190610f3e565b60405180910390f35b3480156101d857600080fd5b506101f360048036038101906101ee9190611120565b610977565b6040516102009190610f79565b60405180910390f35b34801561021557600080fd5b50610230600480360381019061022b9190611120565b61098f565b60405161023d9190610f79565b60405180910390f35b34801561025257600080fd5b5061026d600480360381019061026891906111de565b6109a7565b005b34801561027b57600080fd5b50610284610c1b565b6040516102919190610f3e565b60405180910390f35b6102b460048036038101906102af91906110e0565b610ca9565b005b3480156102c257600080fd5b506102dd60048036038101906102d89190611120565b610e0b565b6040516102ea9190610f79565b60405180910390f35b3480156102ff57600080fd5b5061031a60048036038101906103159190611294565b610e54565b6040516103279190610f79565b60405180910390f35b6000805461033d90611303565b80601f016020809104026020016040519081016040528092919081815260200182805461036990611303565b80156103b65780601f1061038b576101008083540402835291602001916103b6565b820191906000526020600020905b81548152906001019060200180831161039957829003601f168201915b505050505081565b60035481565b600081600460008673ffffffffffffffffffffffffffffffffffffffff1673ffffffffffffffffffffffffffffffffffffffff168152602001908152602001600020541015610448576040517f08c379a000000000000000000000000000000000000000000000000000000000815260040161043f906113a6565b60405180910390fd5b3373ffffffffffffffffffffffffffffffffffffffff168473ffffffffffffffffffffffffffffffffffffffff161415801561051257506fffffffffffffffffffffffffffffffff8016600560008673ffffffffffffffffffffffffffffffffffffffff1673ffffffffffffffffffffffffffffffffffffffff16815260200190815260200160002060003373ffffffffffffffffffffffffffffffffffffffff1673ffffffffffffffffffffffffffffffffffffffff1681526020019081526020016000205414155b156107bf5781600560008673ffffffffffffffffffffffffffffffffffffffff1673ffffffffffffffffffffffffffffffffffffffff16815260200190815260200160002060003373ffffffffffffffffffffffffffffffffffffffff1673ffffffffffffffffffffffffffffffffffffffff1681526020019081526020016000205410156105a057600080fd5b610626600560008673ffffffffffffffffffffffffffffffffffffffff1673ffffffffffffffffffffffffffffffffffffffff16815260200190815260200160002060003373ffffffffffffffffffffffffffffffffffffffff1673ffffffffffffffffffffffffffffffffffffffff1681526020019081526020016000205483610e79565b600560008673ffffffffffffffffffffffffffffffffffffffff1673ffffffffffffffffffffffffffffffffffffffff16815260200190815260200160002060003373ffffffffffffffffffffffffffffffffffffffff1673ffffffffffffffffffffffffffffffffffffffff168152602001908152602001600020819055506106ef600460008673ffffffffffffffffffffffffffffffffffffffff1673ffffffffffffffffffffffffffffffffffffffff1681526020019081526020016000205483610e79565b600460008673ffffffffffffffffffffffffffffffffffffffff1673ffffffffffffffffffffffffffffffffffffffff1681526020019081526020016000208190555061077b600460008573ffffffffffffffffffffffffffffffffffffffff1673ffffffffffffffffffffffffffffffffffffffff1681526020019081526020016000205483610e8f565b600460008573ffffffffffffffffffffffffffffffffffffffff1673ffffffffffffffffffffffffffffffffffffffff168152602001908152602001600020819055505b7fddf252ad1be2c89b69c2b068fc378daa952ba7f163c4a11628f55a4df523b3ef8484846040516107f2939291906113d5565b60405180910390a1600190509392505050565b60075481565b610854600460008473ffffffffffffffffffffffffffffffffffffffff1673ffffffffffffffffffffffffffffffffffffffff1681526020019081526020016000205482610e8f565b600460008473ffffffffffffffffffffffffffffffffffffffff1673ffffffffffffffffffffffffffffffffffffffff168152602001908152602001600020819055506108a360035482610e8f565b6003819055507fddf252ad1be2c89b69c2b068fc378daa952ba7f163c4a11628f55a4df523b3ef600083836040516108dd939291906113d5565b60405180910390a15050565b600280546108f690611303565b80601f016020809104026020016040519081016040528092919081815260200182805461092290611303565b801561096f5780601f106109445761010080835404028352916020019161096f565b820191906000526020600020905b81548152906001019060200180831161095257829003601f168201915b505050505081565b60066020528060005260406000206000915090505481565b60046020528060005260406000206000915090505481565b60006007547f6e71edae12b1b97f4d1f60370fef10105fa2faae0126114a169c64845d6126c98a8a8a8a8a6040516020016109e79695949392919061140c565b60405160208183030381529060405280519060200120604051602001610a0e9291906114e5565b604051602081830303815290604052805190602001209050600073ffffffffffffffffffffffffffffffffffffffff168973ffffffffffffffffffffffffffffffffffffffff1603610a5f57600080fd5b60018185858560405160008152602001604052604051610a82949392919061152b565b6020604051602081039080840390855afa158015610aa4573d6000803e3d6000fd5b5050506020604051035173ffffffffffffffffffffffffffffffffffffffff168973ffffffffffffffffffffffffffffffffffffffff1614610ae557600080fd5b6000861480610af45750854211155b610afd57600080fd5b600660008a73ffffffffffffffffffffffffffffffffffffffff1673ffffffffffffffffffffffffffffffffffffffff1681526020019081526020016000206000815480929190610b4d9061159f565b919050558714610b5c57600080fd5b600085610b6a576000610b8c565b7fffffffffffffffffffffffffffffffffffffffffffffffffffffffffffffffff5b905080600560008c73ffffffffffffffffffffffffffffffffffffffff1673ffffffffffffffffffffffffffffffffffffffff16815260200190815260200160002060008b73ffffffffffffffffffffffffffffffffffffffff1673ffffffffffffffffffffffffffffffffffffffff1681526020019081526020016000208190555050505050505050505050565b60018054610c2890611303565b80601f0160208091040260200160405190810160405280929190818152602001828054610c5490611303565b8015610ca15780601f10610c7657610100808354040283529160200191610ca1565b820191906000526020600020905b815481529060010190602001808311610c8457829003601f168201915b505050505081565b80600460008473ffffffffffffffffffffffffffffffffffffffff1673ffffffffffffffffffffffffffffffffffffffff168152602001908152602001600020541015610cf557600080fd5b3373ffffffffffffffffffffffffffffffffffffffff168273ffffffffffffffffffffffffffffffffffffffff1603610d2d57600080fd5b610d76600460008473ffffffffffffffffffffffffffffffffffffffff1673ffffffffffffffffffffffffffffffffffffffff1681526020019081526020016000205482610e79565b600460008473ffffffffffffffffffffffffffffffffffffffff1673ffffffffffffffffffffffffffffffffffffffff16815260200190815260200160002081905550610dc560035482610e79565b6003819055507fddf252ad1be2c89b69c2b068fc378daa952ba7f163c4a11628f55a4df523b3ef82600083604051610dff939291906113d5565b60405180910390a15050565b6000600460008373ffffffffffffffffffffffffffffffffffffffff1673ffffffffffffffffffffffffffffffffffffffff168152602001908152602001600020549050919050565b6005602052816000526040600020602052806000526040600020600091509150505481565b60008183610e8791906115e7565b905092915050565b60008183610e9d919061161b565b905092915050565b600081519050919050565b600082825260208201905092915050565b60005b83811015610edf578082015181840152602081019050610ec4565b83811115610eee576000848401525b50505050565b6000601f19601f8301169050919050565b6000610f1082610ea5565b610f1a8185610eb0565b9350610f2a818560208601610ec1565b610f3381610ef4565b840191505092915050565b60006020820190508181036000830152610f588184610f05565b905092915050565b6000819050919050565b610f7381610f60565b82525050565b6000602082019050610f8e6000830184610f6a565b92915050565b600080fd5b600073ffffffffffffffffffffffffffffffffffffffff82169050919050565b6000610fc482610f99565b9050919050565b610fd481610fb9565b8114610fdf57600080fd5b50565b600081359050610ff181610fcb565b92915050565b61100081610f60565b811461100b57600080fd5b50565b60008135905061101d81610ff7565b92915050565b60008060006060848603121561103c5761103b610f94565b5b600061104a86828701610fe2565b935050602061105b86828701610fe2565b925050604061106c8682870161100e565b9150509250925092565b60008115159050919050565b61108b81611076565b82525050565b60006020820190506110a66000830184611082565b92915050565b6000819050919050565b6110bf816110ac565b82525050565b60006020820190506110da60008301846110b6565b92915050565b600080604083850312156110f7576110f6610f94565b5b600061110585828601610fe2565b92505060206111168582860161100e565b9150509250929050565b60006020828403121561113657611135610f94565b5b600061114484828501610fe2565b91505092915050565b61115681611076565b811461116157600080fd5b50565b6000813590506111738161114d565b92915050565b600060ff82169050919050565b61118f81611179565b811461119a57600080fd5b50565b6000813590506111ac81611186565b92915050565b6111bb816110ac565b81146111c657600080fd5b50565b6000813590506111d8816111b2565b92915050565b600080600080600080600080610100898b0312156111ff576111fe610f94565b5b600061120d8b828c01610fe2565b985050602061121e8b828c01610fe2565b975050604061122f8b828c0161100e565b96505060606112408b828c0161100e565b95505060806112518b828c01611164565b94505060a06112628b828c0161119d565b93505060c06112738b828c016111c9565b92505060e06112848b828c016111c9565b9150509295985092959890939650565b600080604083850312156112ab576112aa610f94565b5b60006112b985828601610fe2565b92505060206112ca85828601610fe2565b9150509250929050565b7f4e487b7100000000000000000000000000000000000000000000000000000000600052602260045260246000fd5b6000600282049050600182168061131b57607f821691505b60208210810361132e5761132d6112d4565b5b50919050565b7f486f6c64657220646f6573206e6f7420686176652073756666696369656e742060008201527f62616c616e636500000000000000000000000000000000000000000000000000602082015250565b6000611390602783610eb0565b915061139b82611334565b604082019050919050565b600060208201905081810360008301526113bf81611383565b9050919050565b6113cf81610fb9565b82525050565b60006060820190506113ea60008301866113c6565b6113f760208301856113c6565b6114046040830184610f6a565b949350505050565b600060c08201905061142160008301896110b6565b61142e60208301886113c6565b61143b60408301876113c6565b6114486060830186610f6a565b6114556080830185610f6a565b61146260a0830184611082565b979650505050505050565b600081905092915050565b7f1901000000000000000000000000000000000000000000000000000000000000600082015250565b60006114ae60028361146d565b91506114b982611478565b600282019050919050565b6000819050919050565b6114df6114da826110ac565b6114c4565b82525050565b60006114f0826114a1565b91506114fc82856114ce565b60208201915061150c82846114ce565b6020820191508190509392505050565b61152581611179565b82525050565b600060808201905061154060008301876110b6565b61154d602083018661151c565b61155a60408301856110b6565b61156760608301846110b6565b95945050505050565b7f4e487b7100000000000000000000000000000000000000000000000000000000600052601160045260246000fd5b60006115aa82610f60565b91507fffffffffffffffffffffffffffffffffffffffffffffffffffffffffffffffff82036115dc576115db611570565b5b600182019050919050565b60006115f282610f60565b91506115fd83610f60565b9250828210156116105761160f611570565b5b828203905092915050565b600061162682610f60565b915061163183610f60565b9250827fffffffffffffffffffffffffffffffffffffffffffffffffffffffffffffffff0382111561166657611665611570565b5b82820190509291505056fea26469706673582212204e4bd3b62d385deae9dab11716e6d809852e776de4f2239e0aa0fea18d5d3a4e64736f6c634300080f00334761736c6573734761736c6573735065726d697420417070726f76616c20546f6b656e",
  "immutableReferences": {},
  "source": "// SPDX-License-Identifier: GPL-3.0\npragma solidity ^ 0.8.7;\n\n\n\ncontract PermitToken {\n\n function add(uint256 a, uint256 b) internal pure returns (uint256) {\n        return a + b;\n    }\n\n\nfunction sub(uint256 a, uint256 b) internal pure returns (uint256) {\n        return a - b;\n    }\n    \n\n    string public name = \"GaslessGaslessPermit Approval Token\";\n    string public symbol = \"GAT\";\n    string public version = \"1\";\n    uint256 public totalSupply;\n\n    mapping(address => uint) public balanceOf;\n    mapping (address => mapping (address => uint)) public allowance;\n    mapping(address=>uint) public nonceArr;\n\n    function balanceOfAccount(address _account)external view returns(uint){\n        return balanceOf[_account];\n    }\n\n    event Transfer(address _holder, address _destination, uint _amount);\n\n    function transferFrom(address _holder, address _spender, uint _amount)external returns(bool){\n        require(balanceOf[_holder]>=_amount,\"Holder does not have sufficient balance\");\n        if(_holder!=msg.sender && allowance[_holder][msg.sender]!=type(uint128).max){\n            require(allowance[_holder][msg.sender]>=_amount);\n            allowance[_holder][msg.sender] = sub(allowance[_holder][msg.sender], _amount);\n        balanceOf[_holder] = sub(balanceOf[_holder], _amount);\n        balanceOf[_spender] = add(balanceOf[_spender], _amount);\n        }\n        emit Transfer(_holder,_spender,_amount);\n        return true;\n    }\n\n    \n\n    \n    function mint(address _reciever, uint _amount) external payable{\n        balanceOf[_reciever] = add(balanceOf[_reciever], _amount);\n        totalSupply = add(totalSupply, _amount);\n        emit Transfer(address(0), _reciever, _amount);\n    }\n\n    function burn(address _burner, uint _amount) external payable{\n        require(balanceOf[_burner]>=_amount);\n        require(_burner!=msg.sender);\n\n        balanceOf[_burner] = sub(balanceOf[_burner], _amount);\n        totalSupply = sub(totalSupply, _amount);\n        emit Transfer(_burner, address(0), _amount);\n    }\n\nbytes32 public DOMAIN_SEPARATOR = keccak256(\n    abi.encode(\n        keccak256('EIP712Domain(string name,string version,uint256 chainId,address verifyingContract)'),\n        keccak256(bytes(name)),\n        keccak256(bytes(version)),\n        80001,//Testnet chainID\n        address(this)\n));\n\n    function permit(address _holder, address _spender, uint nonce, uint deadline, bool allowed, uint8 v, bytes32 r, bytes32 s)external{\n        bytes32 conditions =\n            keccak256(abi.encodePacked(\n               hex\"1901\",\n                DOMAIN_SEPARATOR,\n                keccak256(abi.encode( keccak256(\"Permit(address owner,address spender,uint256 value,uint256 nonce,uint256 deadline)\"),\n                                     _holder,\n                                     _spender,\n                                     nonce,\n                                     deadline,\n                                     allowed))\n        ));\n\n        require(_holder != address(0));\n        require(_holder == ecrecover(conditions, v, r, s));\n        require(deadline == 0 || block.timestamp <= deadline);\n        require(nonce == nonceArr[_holder]++);\n        uint _amount = allowed ? type(uint256).max : 0;\n        allowance[_holder][_spender] = _amount;\n\n    }\n\n\n    \n}",
  "sourcePath": "/home/minimus/Documents/polygon/contracts/PermitToken.sol",
  "compiler": {
    "name": "solc",
    "version": "0.8.15+commit.e14f2714.Emscripten.clang"
  },
  "schemaVersion": "3.4.7",
  "updatedAt": "2022-06-24T20:12:00.355Z",
  "networkType": "ethereum",
  "devdoc": {
    "kind": "dev",
    "methods": {},
    "version": 1
  },
  "userdoc": {
    "kind": "user",
    "methods": {},
    "version": 1
  }
}